:020000040800F2
:1000000000AF0120510F07085D0507085F050708CD
:10001000610507086305070865050708000000007B
:1000200000000000000000000000000035F10208A0
:100030006705070800000000D1F0020869050708FD
:10004000B10F0708B50F0708B90F0708BD0F07085C
:10005000C10F0708C50F07088B050708C90F070858
:10006000CD0F0708D10F0708D50F0708D90F0708CC
:10007000DD0F0708A5050708E10F0708E50F0708CA
:10008000E90F0708ED0F0708F10F0708F50F07083C
:10009000F90F0708FD0F0708011007088305070877
:1000A00005100708091007080D10070811100708A8
:1000B00015100708191007081D1007082110070858
:1000C00025100708291007082D1007083110070808
:1000D00035100708391007083D10070841100708B8
:1000E00045100708491007084D1007085110070868
:1000F00055100708591007085D1007086110070818
:1001000065100708A1050708691007086D100708A2
:100110007110070875100708791007087D10070887
:1001200081100708AD050708851007089105070825
:100130008910070800000000000000008D1007086B
:100140009110070895100708991007087D05070802
:100150009D1007089505070899050708A1100708CD
:10016000A5100708A9100708AD100708B110070867
:10017000B510070877050708B1050708000000005B
:1001800000000000B9100708000000000000000097
:10019000BD1007080000000000000000C1100708A3
:1001A000000000000000000000000000C51007086B
:1001B000B5050708C9100708CD100708D1100708B2
:1001C000D5100708303A0000313A000043616D65F0
:1001D00072610000526164696F000000496D6167DF
:1001E000650000004566666563747300536574744A
:1001F000696E6773000000004D756C74697061670B
:10020000650000004F4B000043616E63656C0000A9
:10021000000000004272696768746E6573730000C5
:10022000436F6E747261737400000000536C6964F4
:1002300065725F4272000000536C696465725F43CF
:100240006F0000002D322020202D31202020302072
:1002500020202031202020203200000043617074D3
:1002600075726520466F6C646572203A200000004C
:10027000456469740000000042726F777365000086
:10028000FFFFFF00FFFFFF00FFFFFF00FFFFFF007A
:10029000FFFFFF00FFFFFF00FFFFFF00FFFFFF006A
:1002A000FFFFFF00FFFFFF00FFFFFF00FFFFFF005A
:1002B000FFFFFF00FFFFFF00FFFFFF00FFFFFF004A
:10055000FFFFFF00FFFFFF00FFFFFF00FFFFFE00A8
:10056000F9FBD500ECF3A600EAF0A400F6F9CF0001
:10057000FFFFFA00FFFFFF00FFFFFF00FFFFFF008C
:10058000FFFFFF00FFFFFF00FFFFFF00FFFFFF0077
:10059000FFFFFF00FFFFFF00FFFFFF00FFFFFF0067
:1005A000FFFFFF00FFFFFF00FFFFFF00FFFFFF0057
:1005B000FFFFFF00FFFFFF00FFFFFF00FFFFFF0047
:1005C000FFFFFF00FFFFFF00FFFFFF00FFFFFF0037
:1005D000FFFFFF00FFFFFF00FFFFFF00FFFFFF0027
:1005E000FFFFFF00FFFFFF00FFFFFF00FFFFFF0017
:1005F000FFFFFF00FFFFFF00FFFFFF00FFFFFF0007
:10060000FFFFFF00FFFFFF00FFFFFF00FFFFFF00F6
:10061000FFFFFF00FFFFFF00FFFFFF00FFFFFF00E6
:10062000FFFFFF00FFFFFF00FFFFFF00FFFFFF00D6
:10063000FFFFFF00FFFFFF00FFFFFF00FFFFFF00C6
:10064000FFFFFF00FFFFFF00FFFFFF00FEFEF300C4
:10065000EBF29900D0DF4500CBDB3700E1EB820005
:10066000FDFFE900FFFFFB00FFFFFF00FFFFFF00B2
:10067000FFFFFF00FFFFFF00FFFFFF00FFFFFF0086
:10068000FFFFFF00FFFFFF00FFFFFF00FFFFFF0076
:10069000FFFFFF00FFFFFF00FFFFFF00FFFFFF0066
:1006A000FFFFFF00FFFFFF00FFFFFF00FFFFFF0056
:1006B000FFFFFF00FFFFFF00FFFFFF00FFFFFF0046
:1006C000FFFFFF00FFFFFF00FFFFFF00FFFFFF0036
:1006D000FFFFFF00FFFFFF00FFFFFF00FFFFFF0026
:1006E000FFFFFF00FFFFFF00FFFFFF00FFFFFF0016
:1006F000FFFFFF00FFFFFF00FFFFFF00FFFFFF0006
:10070000FFFFFF00FFFFFF00FFFFFF00FFFFFF00F5
:10071000FFFFFF00FFFFFF00FFFFFF00FFFFFF00E5
:10072000FFFFFF00FFFFFF00FFFFFF00FFFFFF00D5
:10073000FFFFFF00FFFFFF00FFFFFF00FDFDE300E5
:10074000E3EE7400CADE2600C6D91700D8E46000C4
:10075000F8FCD800FFFFF700FFFFFF00FFFFFF00DE
:10076000FFFFFF00FFFFFF00FFFFFF00FFFFFF0095
:10077000FFFFFF00FFFFFF00FFFFFF00FFFFFF0085
:10078000FFFFFF00FFFFFF00FFFFFF00FFFFFF0075
:10079000FFFFFF00FFFFFF00FFFFFF00FFFFFF0065
:1007A000FFFFFF00FFFFFF00FFFFFF00FFFFFF0055
:1007B000FFFFFF00FFFFFF00FFFFFF00FFFFFF0045
:1007C000FFFFFF00FFFFFF00FFFFFF00FFFFFF0035
:1007D000FFFFFF00FFFFFF00FFFFFF00FFFFFF0025
:1007E000FFFFFF00FFFFFF00FFFFFF00FFFFFF0015
:1007F000FFFFFF00FFFFFF00FFFFFF00FFFFFF0005
:10080000FFFFFF00FFFFFF00FFFFFF00FFFFFF00F4
:10081000FFFFFF00FFFFFF00FFFFFF00FFFFFF00E4
:10082000FFFFFF00FFFFFF00FFFFFC00F1F4BF0030
:10083000D0E04200C5DB0E00C5DA0B00D1E0480075
:10084000F2F9C600FEFFF100FFFFFF00FFFFFF000F
:10085000FFFFFF00FFFFFF00FFFFFF00FFFFFF00A4
:10086000FFFFFF00FFFFFF00FFFFFF00FFFFFF0094
:10087000FFFFFF00FFFFFF00FFFFFF00FFFFFF0084
:10088000FFFFFF00FFFFFF00FFFFFF00FFFFFF0074
:10089000FFFFFF00FFFFFF00FFFFFF00FFFFFF0064
:1008A000FFFFFF00FFFFFF00FFFFFF00FFFFFF0054
:1008B000FFFFFF00FFFFFF00FFFFFF00FFFFFF0044
:1008C000FFFFFF00FFFFFF00FFFFFF00FFFFFF0034
:1008D000FFFFFF00FFFFFF00FFFFFF00FFFFFF0024
:1008E000FFFFFF00FFFFFF00FFFFFF00FFFFFF0014
:1008F000FFFFFF00FFFFFF00FFFFFF00FFFFFF0004
:10090000FFFFFF00FFFFFF00FFFFFF00FFFFFF00F3
:10091000FFFFFF00FFFFFF00FCFDE000E2EC8500B1
:10092000C7DA2100C4D80A00C6D70B00C9D92A00EB
:10093000E3EE8A00F9FCCC00FFFFFC00FFFFFF00A4
:10094000FFFFFF00FFFFFF00FFFFFF00FFFFFF00B3
:10095000FFFFFF00FFFFFF00FFFFFF00FFFFFF00A3
:10096000FFFFFF00FFFFFF00FFFFFF00FFFFFF0093
:10097000FFFFFF00FFFFFF00FFFFFF00FFFFFF0083
:10098000FFFFFF00FFFFFF00FFFFFF00FFFFFF0073
:10099000FFFFFF00FFFFFF00FFFFFF00FFFFFF0063
:1009A000FFFFFF00FFFFFF00FFFFFF00FFFFFF0053
:1009B000FFFFFF00FFFFFF00FFFFFF00FFFFFF0043
:1009C000FFFFFF00FFFFFF00FFFFFF00FFFFFF0033
:1009D000FFFFFF00FFFFFF00FFFFFF00FFFFFF0023
:1009E000FFFFFF00FFFFFF00FFFFFF00FFFFFF0013
:1009F000FFFFFF00FFFFFF00FFFFFF00FFFFFF0003
:100A0000FFFFFF00FFFFFF00F4FAB000D4E3450052
:100A1000C5D70B00C6D60C00C8D30F00C5D50B0038
:100A2000CDDF3500E3EC7D00F9FCD300FFFFF500DE
:100A3000FFFFFF00FFFFFF00FFFFFF00FFFFFF00C2
:100A4000FFFFFF00FFFFFF00FFFFFF00FFFFFF00B2
:100A5000FFFFFF00FFFFFF00FFFFFF00FFFFFF00A2
:100A6000FFFFFF00FFFFFF00FFFFFF00FFFFFF0092
:100A7000FFFFFF00FFFFFF00FFFFFF00FFFFFF0082
:100A8000FFFFFF00FFFFFF00FFFFFF00FFFFFF0072
:100A9000FFFFFF00FFFFFF00FFFFFF00FFFFFF0062
:100AA000FFFFFF00FFFFFF00FFFFFF00FFFFFF0052
:100AB000FFFFFF00FFFFFF00FFFFFF00FFFFFF0042
:100AC000FFFFFF00FFFFFF00FFFFFF00FFFFFF0032
:100AD000FFFFFF00FFFFFF00FFFFFF00FFFFFF0022
:100AE000FFFFFF00FFFFFF00FFFFFF00FFFFFF0012
:100AF000FFFFFF00FFFFFF00EAF48E00CADD2D00BC
:100B0000C5D90E00C8D90D00C9D41100C7D6100030
:100B1000C6DC1500CDDF3000E4EF7F00F8FCC80034
:100B2000FFFFF600FFFFFF00FFFFFF00FFFFFF00DA
:100B3000FFFFFF00FFFFFF00FFFFFF00FFFFFF00C1
:100B4000FFFFFE00FFFFFF00FFFFFF00FFFFFF00B2
:100B5000FFFFFF00FFFFFF00FFFFFF00FFFFFF00A1
:100B6000FFFFFF00FFFFFF00FFFFFF00FFFFFF0091
:100B7000FFFFFF00FFFFFF00FFFFFF00FFFFFF0081
:100B8000FFFFFF00FFFFFF00FFFFFF00FFFFFF0071
:100B9000FFFFFF00FFFFFF00FFFFFF00FFFFFF0061
:100BA000FFFFFF00FFFFFF00FFFFFF00FFFFFF0051
:100BB000FFFFFF00FFFFFF00FFFFFF00FFFFFF0041
:100BC000FFFFFF00FFFFFF00FFFFFF00FFFFFF0031
:100BD000FFFFFF00FFFFFF00FFFFFF00FFFFFF0021
:100BE000FFFFFF00FFFFFF00E1EF7200C1D71C0015
:100BF000C1D60F00C7DA0F00C9D71200C7D711003E
:100C0000C4D90A00C4D81200CADE3000DAE8630092
:100C1000F2F7B400FDFEEB00FFFFFF00FFFFFF0057
:100C2000FFFFFF00FFFFFF00FFFFFF00FFFFFF00D0
:100C3000FFFFFE00FFFFFF00FFFFFF00FFFFFF00C1
:100C4000FFFFFF00FFFFFF00FFFFFF00FFFFFF00B0
:100C5000FFFFFF00FFFFFF00FFFFFF00FFFFFF00A0
:100C6000FFFFFF00FFFFFF00FFFFFF00FFFFFF0090
:100C7000FFFFFF00FFFFFF00FFFFFF00FFFFFF0080
:100C8000FFFFFF00FFFFFF00FFFFFF00FFFFFF0070
:100C9000FFFFFF00FFFFFF00FFFFFF00FFFFFF0060
:100CA000FFFFFF00FFFFFF00FFFFFF00FFFFFF0050
:100CB000FFFFFF00FFFFFF00FFFFFF00FFFFFF0040
:100CC000FFFFFF00FFFFFF00FFFFFF00FFFFFF0030
:100CD000FFFFFF00FFFFFF00E5F18600C6D93200ED
:100CE000C1D71500C7DB1700C8D81600C5D610003D
:100CF000C6D70C00C5D80E00C2D70D00C5DA1E003D
:100D0000D9E56000EFF5A700FFFFE900FFFFFD0058
:100D1000FFFFFF00FFFFFF00FFFFFF00FFFFFF00DF
:100D2000FFFFFF00FFFFFF00FFFFFF00FFFFFF00CF
:100D3000FFFFFF00FFFFFF00FFFFFF00FFFFFF00BF
:100D4000FFFFFF00FFFFFF00FFFFFF00FFFFFF00AF
:100D5000FFFFFF00FFFFFF00FFFFFF00FFFFFF009F
:100D6000FFFFFF00FFFFFF00FFFFFF00FFFFFF008F
:100D7000FFFFFF00FFFFFF00FFFFFF00FFFFFF007F
:100D8000FFFFFF00FFFFFF00FFFFFF00FFFFFF006F
:100D9000FFFFFF00FFFFFF00FFFFFF00FFFFFF005F
:100DA000FFFFFF00FFFFFF00FFFFFF00FFFFFF004F
:100DB000FFFFFF00FFFFFF00FFFFFF00FFFFFF003F
:100DC000FFFFFF00FFFFFF00F7F9D200E0EB7F001D
:100DD000D3E54300D6E74200CFDF3700C7D81F0076
:100DE000C6D60F00C5D70B00C9DC0E00C8DC0D004D
:100DF000C6DA1400D0E13C00EFF49700FCFDDE0001
:100E0000FFFFFA00FFFFFE00FFFFFF00FFFFFF00F4
:100E1000FFFFFF00FFFFFF00FFFFFF00FFFFFF00DE
:100E2000FFFFFF00FFFFFF00FFFFFF00FFFFFF00CE
:100E3000FFFFFF00FFFFFF00FFFFFF00FFFFFF00BE
:100E4000FFFFFF00FFFFFF00FFFFFF00FFFFFF00AE
:100E5000FFFFFF00FFFFFF00FFFFFF00FFFFFF009E
:100E6000FFFFFF00FFFFFF00FFFFFF00FFFFFF008E
:100E7000FFFFFF00FFFFFF00FFFFFF00FFFFFF007E
:100E8000FFFFFF00FFFFFF00FFFFFF00FFFFFF006E
:100E9000FFFFFF00FFFFFF00FFFFFF00FFFFFF005E
:100EA000FFFFFF00FFFFFF00FFFFFF00FFFFFF004E
:100EB000FFFFFF00FFFFFF00FEFEF000F8FBCE008B
:100EC000F4F9B900F4F9B900EEF49800DAE651004B
:100ED000C8D61900C7D61700C8DA0E00C7DB07004E
:100EE000C6D90C00CADC2000D8E44100E8F28C002E
:100EF000F9FDDA00FFFFF600FFFFFF00FFFFFF0034
:100F0000FFFFFF00FFFFFF00FFFFFF00FFFFFF00ED
:100F1000FFFFFF00FFFFFF00FFFFFF00FFFFFF00DD
:100F2000FFFFFF00FFFFFF00FFFFFF00FFFFFF00CD
:100F3000FFFFFF00FFFFFF00FFFFFF00FFFFFF00BD
:100F4000FFFFFF00FFFFFF00FFFFFF00FFFFFF00AD
:100F5000FFFFFF00FFFFFF00FFFFFF00FFFFFF009D
:100F6000FFFFFF00FFFFFF00FFFFFF00FFFFFF008D
:100F7000FFFFFF00FFFFFF00FFFFFF00FFFFFF007D
:100F8000FFFFFF00FFFFFF00FFFFFF00FFFFFF006D
:100F9000FFFFFF00FFFFFF00FFFFFF00FFFFFF005D
:100FA000FFFFFF00FFFFFF00FFFFFD00FFFFFD0051
:100FB000FFFFFF00FFFFFF00FEFFEC00F5F8AE00B3
:100FC000DDE45B00CFDA3900C5D61900C6D91300BD
:100FD000C8D81300C7D81200C7DA0F00CDDF37001A
:100FE000E0EC8200F3F9B600FEFFEA00FFFFFC0030
:100FF000FFFFFF00FFFFFF00FFFFFF00FFFFFF00FD
:10100000FFFFFF00FFFFFF00FFFFFF00FFFFFF00EC
:10101000FFFFFF00FFFFFF00FFFFFF00FFFFFF00DC
:10102000FFFFFF00FFFFFF00FFFFFF00FFFFFF00CC
:10103000FFFFFF00FFFFFF00FFFFFF00FFFFFF00BC
:10104000FFFFFF00FFFFFF00FFFFFF00FFFFFF00AC
:10105000FFFFFF00FFFFFF00FFFFFF00FFFFFF009C
:10106000FFFFFF00FFFFFF00FFFFFF00FFFFFF008C
:10107000FFFFFF00FFFFFF00FFFFFF00FFFFFF007C
:10108000FFFFFF00FFFFFF00FFFFFF00FFFFFF006C
:10109000FFFFFF00FFFFFF00FFFFFF00FFFFFF005C
:1010A000FFFFFF00FFFFFF00FFFFFE00FEFFF2005B
:1010B000F5F6AC00DDE36600CAD82C00CAD92100E1
:1010C000C7D61600C2D40D00C5D70F00C4D8130070
:1010D000C7DC2D00DCE95E00F5FAAC00FDFEDF00A8
:1010E000FFFFF800FFFFFB00FFFFFA00FFFFFA0021
:1010F000FFFFFB00FFFFFA00FFFFFA00FFFFFA000F
:10110000FFFFFA00FFFFFA00FFFFFA00FFFFFA00FF
:10111000FFFFFA00FFFFFA00FFFFFA00FFFFFA00EF
:10112000FFFFFA00FFFFFA00FFFFFB00FFFFFC00DC
:10113000FFFFFF00FFFFFF00FFFFFF00FFFFFF00BB
:10114000FFFFFF00FFFFFF00FFFFFF00FFFFFF00AB
:10115000FFFFFF00FFFFFF00FFFFFF00FFFFFF009B
:10116000FFFFFF00FFFFFF00FFFFFF00FFFFFF008B
:10117000FFFFFF00FFFFFF00FFFFFF00FFFFFF007B
:10118000FFFFFF00FFFFFF00FFFFFE00FFFFFE006D
:10119000FFFFFF00FFFFFF00FFFFFC00FEFFF0006E
:1011A000FBFCC000EEF48D00D5E43E00C9DC170066
:1011B000C6D71100C6D61700C7D71C00C5D8120065
:1011C000C3DA0D00C9DC1D00DBE75100EDF38C0034
:1011D000FAFCBE00FDFDCC00FCFDC900FCFDC80012
:1011E000FBFDCA00FBFDCA00FBFDCA00FBFDCA00F7
:1011F000FBFDCA00FBFDCA00FBFDCA00FBFDCA00E7
:10120000FBFDCA00FBFDCA00FBFDCA00FBFDCA00D6
:10121000FBFDCA00FBFDCA00FBFDCB00FDFED900B3
:10122000FFFFF300FFFFFE00FFFFFF00FFFFFF00D7
:10123000FFFFFF00FFFFFF00FFFFFF00FFFFFF00BA
:10124000FFFFFF00FFFFFF00FFFFFF00FFFFFF00AA
:10125000FFFFFF00FFFFFF00FFFFFF00FFFFFF009A
:10126000FFFFFF00FFFFFF00FFFFFF00FFFFFF008A
:10127000FFFFFF00FFFFFF00FFFFFE00FFFFFE007C
:10128000FFFFFF00FFFFFD00FCFEDE00EFF7AA00FE
:10129000E4ED7500DEEC5B00CEE12800C5DA0E005F
:1012A000C4D70C00C6D81400C7D71600C8D912007E
:1012B000C7D81000C4D61200CBDA2700D8E3460006
:1012C000E2EC6200E4ED6B00E3EB6D00E2EB6D003D
:1012D000E1EC7000E1EC7000E1EC7000E1EC70001A
:1012E000E1EC7000E1EC7000E1EC7000E1EC70000A
:1012F000E1EC6F00E1EC6F00E1EC7000E1EC7000FC
:10130000E1EC6F00E1EC6F00E1EC7400E7F19A00B2
:10131000F9FCD500FFFFF600FFFFFF00FFFFFF0015
:10132000FFFFFF00FFFFFF00FFFFFF00FFFFFF00C9
:10133000FFFFFF00FFFFFF00FFFFFF00FFFFFF00B9
:10134000FFFFFF00FFFFFF00FFFFFF00FFFFFF00A9
:10135000FFFFFF00FFFFFF00FFFFFF00FFFFFF0099
:10136000FFFFFF00FFFFFF00FFFFFF00FFFFFF0089
:10137000FFFFFF00FEFFE700EDF79200D0E345001E
:10138000C1D61400C4DB0F00C3DA0700C2D80700BF
:10139000C2D60A00C5D70A00C5D80900C9D81100AD
:1013A000CAD71B00C5D21B00C3D41500C6D7110075
:1013B000C7DA0B00C5D90A00C3D61400C3D617007C
:1013C000C3D81500C3D81500C3D81500C3D815005D
:1013D000C3D81500C3D81500C3D81500C3D813004F
:1013E000C3D81700C3D71700C3D71400C3D816003B
:1013F000C3D71700C3D81500C3D71E00C9D94D00E5
:10140000E3F09000FAFDD100FFFFFD00FFFFFF00B9
:10141000FFFFFF00FFFFFF00FFFFFF00FFFFFF00D8
:10142000FFFFFF00FFFFFF00FFFFFF00FFFFFF00C8
:10143000FFFFFF00FFFFFF00FFFFFF00FFFFFF00B8
:10144000FFFFFF00FFFFFF00FFFFFF00FFFFFF00A8
:10145000FFFFFF00FFFFFF00FFFFFF00FFFFFF0098
:10146000FFFFFD00F9FCC400DCE84F00CADA2100F0
:10147000C5D60F00C5D80E00C5D80C00C5D80C00C5
:10148000C5D70C00C6D80C00C6D80C00C5D61000B5
:10149000C7D71700C6D71500C7D80F00C6D80D008C
:1014A000C7D90E00C6D80D00C6D81400C6D814007F
:1014B000C4D80E00C4D80E00C4D80E00C4D80E0084
:1014C000C4D80E00C4D80E00C5D80D00C6DA090075
:1014D000C5D91500C4D61500C3D70B00C4D8140055
:1014E000C4D61700C4D70F00C4D51800C4D4240034
:1014F000D5E44200EFF8A100FFFFF600FFFFFF0078
:10150000FFFFFF00FFFFFD00FFFFFE00FFFFFF00EA
:10151000FFFFFF00FFFFFF00FFFFFF00FFFFFF00D7
:10152000FFFFFF00FFFFFF00FFFFFF00FFFFFF00C7
:10153000FFFFFF00FFFFFF00FFFFFF00FFFFFF00B7
:10154000FFFFFF00FFFFFF00FFFFFF00FFFFFF00A7
:10155000FFFFFB00F3F7B400D1DE3400C7D6140060
:10156000C7D80D00C7D80E00C7D80E00C7D80E00C8
:10157000C7D80E00C7D80E00C7D80E00C4D50E00BD
:10158000C6D91300C7D90F00C4D70700C3D50C00B4
:10159000C5D61700C5D61500C6D80E00C6DA0E008F
:1015A000C7D90E00C7D90E00C7D90E00C7D90E0083
:1015B000C7D90E00C7D90E00C7DA0D00C7DB090076
:1015C000C7D81400C7D71700C7DA0E00C8DA16004C
:1015D000C4D51900C2D50C00C5D61400C4D4160059
:1015E000CADC2200E2EE7600FDFEE700FFFFFF000E
:1015F000FFFFFF00FFFFFF00FFFFFF00FFFFFF00F7
:10160000FFFFFF00FFFFFF00FFFFFE00FFFFFD00E9
:10161000FFFFFD00FFFFFE00FFFFFE00FFFFFE00DB
:10162000FFFFFF00FFFFFF00FFFFFF00FFFFFF00C6
:10163000FFFFFF00FFFFFF00FFFFFF00FFFFFF00B6
:10164000FFFFF900EEF3A900CBDA2900C5D61000A0
:10165000C7D80D00C7D80E00C7D80E00C7D80E00D7
:10166000C7D80E00C7D80E00C7D80E00C4D60D00CC
:10167000C7DB0E00C6DA0A00C2D60B00C6D61C00B5
:10168000CCD93000CCDA2D00CADB1E00CBDC1E002A
:10169000CDDC2300CDDC2200CDDC2200CDDC22001D
:1016A000CDDC2200CDDC2200CDDC2200CCDD1E0012
:1016B000CBDA2600CDDB2A00CDDD1E00CCDC2000FD
:1016C000C6D72000C3D40D00C6D90E00C6D810005E
:1016D000C6D91700D9E85F00FAFDDB00FFFFFF0065
:1016E000FFFFFF00FFFFFF00FFFFFF00FFFFFF0006
:1016F000FFFFFF00FFFFFF00FFFFF100FDFFE30022
:10170000FCFEDE00FDFEE000FCFDE300FDFEE70068
:10171000FFFFEC00FFFFFB00FFFFFF00FFFFFF00EC
:10172000FFFFFF00FFFFFF00FFFFFF00FFFFFF00C5
:10173000FEFEF400E7ED9500C6D61A00C5D60B00F4
:10174000C7D80E00C7D80E00C7D80E00C7D80E00E5
:10175000C7D80E00C7D80E00C7D80D00C6D90A00DA
:10176000C8DD0900C3D80A00C9D92300D8E448005D
:10177000E3E96700E0E66600DAE45300DBE54F00EA
:10178000DDE55600DDE55600DDE55600DDE55600F9
:10179000DDE55600DDE55600DDE55600DCE55100EF
:1017A000DAE15900DCE25800DBE64600D8E541000A
:1017B000D5E13B00C9DA1D00C6DC0700C8DD060024
:1017C000C5D91100D3E24A00F7FBCF00FFFFFF00AD
:1017D000FFFFFF00FFFFFF00FFFFFF00FFFFFF0015
:1017E000FFFFFE00FFFFF500F8FBC100ECF49900DD
:1017F000E7F08000E8F08300E7EE8B00E9F291006B
:10180000F1F8A200FDFEE200FFFFFF00FFFFFF0076
:10181000FFFFFF00FFFFFF00FFFFFF00FFFFFF00D4
:10182000FDFEEE00E4EB8B00C4D61200C5D7080025
:10183000C7D80E00C7D80E00C7D80E00C7D80E00F4
:10184000C7D80E00C7D80E00C7D80E00C8D91100DF
:10185000C8DA1400C4D51F00D7DF5100ECF07800BF
:10186000F0F28B00ECEE8C00E9EC7C00E9ED780006
:10187000E9EC7C00E9EC7B00E9EC7B00E9EC7B0027
:10188000E9EC7B00E9EC7B00E9EC7B00E9ED77001B
:10189000E7E97E00EAEC8000ECF27100ECF36E0008
:1018A000EAF16D00D7E14800C4D71100C6DB06009D
:1018B000C5D81400D2DF4800F7F8CE00FFFFFF00C4
:1018C000FFFFFF00FFFFFF00FFFFFF00FFFFFF0024
:1018D000FFFFF200FDFDCB00E4EC8200D3E15200FB
:1018E000CEDF3300CFDF3400D2E13900D0E03D005D
:1018F000D8E65200F6F9B500FFFFFF00FFFFFF003A
:10190000FFFFFF00FFFFFF00FFFFFF00FFFFFE00E4
:10191000FDFEE800E3EC8300C4D70E00C7D9080041
:10192000C6D70E00C7D80E00C7D80E00C7D80E0005
:10193000C7D80E00C7D80E00C7D80E00C7D81100F0
:10194000C8D81700C9D63200E3E86F00EDF376007F
:10195000E0E75E00DAE25B00DBE45200DCE54F002A
:10196000DCE45200DCE45200DCE45200DCE452002F
:10197000DCE45200DCE45200DCE45200DCE64E0021
:10198000DAE35200DBE35700DAE44F00DFE7590007
:10199000EDF37A00E1E76600C7D61C00C3D7080064
:1019A000C6D71F00D6E14E00F8FBCA00FFFFFD00BE
:1019B000FFFFF900FFFFF900FFFFFE00FFFFF80047
:1019C000F9FAB700E7EF7100CCDB3500C4D51A0097
:1019D000C3D60B00C5D60B00C5D90A00C3D70B0070
:1019E000CADB2100F2F49E00FFFFFF00FFFFFF00B3
:1019F000FFFFFF00FFFFFF00FFFFFF00FFFFFE00F4
:101A0000FDFEE500E3EC8000C5D80D00C7DA080054
:101A1000C6D70E00C7D80E00C7D80E00C7D80E0014
:101A2000C7D80E00C7D80E00C7D80E00C7D80E0002
:101A3000C7D81700D0DB3D00E8ED7600E4EC5C0091
:101A4000CBD92300C6D61F00C8D91B00C9DA17009E
:101A5000C9D91B00C9D91B00C9D91B00C9D91B0092
:101A6000C9D91B00C9D91B00C9D91B00CBDC160082
:101A7000C9DB1A00C7D72000C4D31E00CAD6310064
:101A8000E7ED7100E5EB7200CBDA2400C3D70A0062
:101A9000C6D61F00D5E04500F3F8A200F9FBD1003F
:101AA000F9FBC800FAFCCC00FEFFE800FFFFE400F1
:101AB000EAF18000D2E13100C2D50E00C1D40900A4
:101AC000C6D70E00C5D51000C4D70800C2D706007F
:101AD000CADA1B00F3F5A200FFFFFF00FFFFFF00C3
:101AE000FFFFFF00FFFFFF00FFFFFF00FFFFFE0003
:101AF000FDFEE400E4EE7F00C4D80D00C6D9080066
:101B0000C7D80E00C7D80E00C7D80E00C7D80E0021
:101B1000C7D80E00C7D80E00C7D80E00C6D70D0014
:101B2000C7D71B00D7E14F00EDEF8500DCE5530080
:101B3000C2D50E00C5D61200C5D71000C3D60A0004
:101B4000C4D70C00C4D70B00C4D70B00C4D70B00FC
:101B5000C4D70B00C4D70B00C4D70C00C5D80900EC
:101B6000C7D90C00C6D81300C4D51400C9D62700A5
:101B7000E8ED7800EDEF8900CFDD3000C7DD0C0027
:101B8000C5DA0C00C7D81300D0DE3000D2DD430028
:101B9000D0DE3E00D5E35500EFF8A400FBFDBF000A
:101BA000DBE75300C4DA1100C3D80700C6D80D0024
:101BB000CAD91B00C7D51F00C6D50D00C5D809005E
:101BC000C9DA2000F3F3AA00FFFFFF00FFFFFF00C8
:101BD000FFFFFF00FFFFFF00FFFFFF00FFFFFE0012
:101BE000FDFEE300E4EE7F00C3D80E00C5D8080078
:101BF000C7D80E00C7D80E00C7D80E00C7D80E0031
:101C0000C7D80E00C7D80E00C7D80D00C5D70B0027
:101C1000C8D81300D9E54800EDF08100D9E24D00A5
:101C2000C5D70D00CADA1800C7D81500C4D70C00F4
:101C3000C6D80E00C6D80E00C6D80E00C6D80E00F4
:101C4000C6D80E00C6D80E00C6D80E00C5D70D00E7
:101C5000C6D90F00C7D91000C4D70D00C5D41D00C8
:101C6000E5E96F00EFF18A00D2E02F00C8DE0F0037
:101C7000C6DA1100C5D61100C7D61300C6D51500A7
:101C8000C4D61100C6DB2C00EAF59A00F8FBBD00B3
:101C9000D5E24A00C2D90B00C6DA1300C7DA140035
:101CA000C9D81900C7D41E00C6D60C00C7D90B006E
:101CB000CBDA2100F3F3A900FFFFFF00FFFFFF00D5
:101CC000FFFFFF00FFFFFF00FFFFFF00FFFFFE0021
:101CD000FDFEE300E5EE8100C6D81200C7D80B0078
:101CE000C7D80E00C7D80E00C7D80E00C7D80E0040
:101CF000C7D80E00C7D80E00C7D80D00C5D70D0035
:101D0000C7DA1100DBE84100ECF17900D8E24800C5
:101D1000C6D81000C9DA1B00C8DA1500C7D90E00F2
:101D2000C6D81100C6D81100C6D81100C6D81100F7
:101D3000C6D81100C6D81100C6D81100C6D71300E6
:101D4000C6D81200C5D70E00C4D80900C4D41400E8
:101D5000E1E66900F0F28D00D1E12C00C6DB100055
:101D6000C5D61800C8D41D00CAD51600CAD80D00A3
:101D7000C6D90900C3DA1E00ECF59F00F9FAC500C8
:101D8000D3E14C00C3D80E00C8DB2000C4D8180033
:101D9000C5D61000C6D51700C6D90B00C6DA0A0092
:101DA000CADB2000F3F4A500FFFFFF00FFFFFF00E8
:101DB000FFFFFF00FFFFFF00FFFFFF00FFFFFE0030
:101DC000FDFEE300E5ED8100C7D81500C8D90D0080
:101DD000C6D70E00C7D80E00C7D80E00C7D80E0051
:101DE000C7D80E00C7D80E00C7D80E00C5D613003E
:101DF000C8D81B00DDE84600EEF37B00D8E24900BE
:101E0000C3D51000C3D51700C6D90E00C7DA0A0023
:101E1000C5D70E00C5D70E00C5D70E00C5D70E001A
:101E2000C5D70E00C5D70E00C5D70E00C5D7110007
:101E3000C6D90F00C4D70D00C7DB0C00C7D71700E9
:101E4000E2E66F00F1F09800D0DF3300C3D80C0059
:101E5000C2D41200C7D21D00CBD41600CCD90C00BE
:101E6000C6DA0700C0D81200EBF59800FBFDC200EF
:101E7000D2E04900C0D60E00C6D82300C1D4150058
:101E8000C5D70A00C8D91500C8DB0B00C3D80A00A3
:101E9000C7D82000F1F4A000FFFFFF00FFFFFF0004
:101EA000FFFFFF00FFFFFF00FFFFFF00FFFFFF003E
:101EB000FDFEE300E4EE7A00C7D81300C8D80F0097
:101EC000C6D80D00C7D80E00C7D80E00C7D80E0060
:101ED000C7D80E00C7D80E00C7D80D00C6D810004E
:101EE000C9DB1800DAE74C00EEF28500D8E44B00BD
:101EF000C5DC0900C4D81100C3D70C00C5D809003F
:101F0000C6D70D00C6D70D00C6D70D00C6D70D0029
:101F1000C6D70D00C6D70D00C6D70D00C9D913000E
:101F2000C9D71300C5D41900C8D91A00C8DA1800D7
:101F3000E0EB6200EEF19700CFDF3D00C5D7130064
:101F4000C4D50B00C6D51100C9D51B00C9D81700D0
:101F5000C8DA1300C6D91C00EEF49800FBFCBE00E2
:101F6000D3E34100C3D80B00C6D41900C5D40F0079
:101F7000C7D80C00C9D91100C6D91200C2D61200A8
:101F8000C8DA1F00F2F69B00FFFFFF00FFFFFF0013
:101F9000FFFFFF00FFFFFF00FFFFFF00FFFFFF004D
:101FA000FDFFE300E4EF7700C5D71200C7D71000AC
:101FB000C6D80D00C7D80E00C7D80E00C7D80E006F
:101FC000C7D80E00C7D80E00C7D80D00C5D90B0062
:101FD000C7DB1300DAE74C00ECF28900D7E44D00D0
:101FE000C3DA0800C5DA1100C2D61000C4D70C004D
:101FF000C7D80F00C7D80F00C7D80F00C7D80F0029
:10200000C7D80F00C7D80F00C7D80F00C9D8140011
:10201000C8D51200C6D21C00C8D81D00C8DB1500E8
:10202000DFED5A00ECF39100CEE03D00C6D914007C
:10203000C6D70900C6D80800C7D71500C6D81300F0
:10204000C6D81200C6D81C00EFF29700FBFCBD00FA
:10205000D3E43F00C4D90900C7D41400C8D50D008B
:10206000C9D80D00C8D80E00C4D81500C3D71600B3
:10207000C9DB1E00F0F59600FFFFFF00FFFFFF0029
:10208000FFFFFF00FFFFFF00FFFFFF00FFFFFF005C
:10209000FDFFE300E4EF7700C5D71200C7D81000BA
:1020A000C6D80D00C7D80E00C7D80E00C7D80E007E
:1020B000C7D80E00C7D80E00C6D80D00C2D60B0078
:1020C000C3D71500D9E64E00EEF28B00D6E15100E1
:1020D000C1D60C00C5D81300C5D91400C5D910004D
:1020E000C8D71300C8D81300C8D81300C8D8130025
:1020F000C8D81300C8D81300C8D71300C7D611001A
:10210000C5D60B00C6D41200C6D81200C7DB11001A
:10211000E0EC5A00ECF48C00CFE23700C6DA110094
:10212000C7DA0A00C7DA0600C5D80C00C3D70A0010
:10213000C1D60900C3D71800EFF39A00FCFDC00018
:10214000D4E54100C6DA0C00C7D51700C8D60F0089
:10215000CAD90E00C7D80E00C4D71300C4D71500C3
:10216000C8DB1C00EEF28F00FFFFFF00FFFFFF0047
:10217000FFFFFF00FFFFFF00FFFFFF00FFFFFF006B
:10218000FDFFE300E4EF7700C5D71200C7D81000C9
:10219000C6D80D00C7D80E00C7D80E00C7D80E008D
:1021A000C7D80E00C7D80E00C6D80E00C2D5110081
:1021B000C2D41F00D8E35700EFF29000D7E15B00D4
:1021C000C2D61400C5D91600C3D81100C5D70F0058
:1021D000C8D61700C8D61700C8D61600C8D616002D
:1021E000C8D61600C8D61600C8D61600C8D70D0027
:1021F000C6DA0600C4D80800C2D60900C4D9120045
:10220000E0EC6200ECF38F00CCDE3900C3D61300A3
:10221000C6D70C00C7D90700C5D71200C6D9100011
:10222000C3D71000C4D81F00F0F4A000FCFDC40008
:10223000D4E54300C6DB0E00C9D61700C9D710008D
:10224000CAD90E00C8D80E00C3D61200C3D81200D7
:10225000C8DB1A00EAEF8800FFFFFF00FFFFFF0066
:10226000FFFFFF00FFFFFF00FFFFFF00FFFFFF007A
:10227000FDFFE300E4EF7700C5D71200C7D81000D8
:10228000C6D80D00C7D80E00C7D80E00C7D80E009C
:10229000C7D80E00C7D80E00C7D80D00C5D80F008C
:1022A000C6DA1C00D8E64E00EDF38500D7E25800F0
:1022B000C2D41900C4D81800C4D91000C5D80D0064
:1022C000C8D81400C8D81500C8D81500C8D815003B
:1022D000C8D81500C8D81500C8D81500C7D813002D
:1022E000C9DB1000C7DB0D00C2D70F00C4D71D002B
:1022F000DFE86A00ECF18F00D0E03A00C6D81600A3
:10230000C8DA0D00C7D90A00C5D71700C7DA16000A
:10231000C6DA1300C6DA1B00F0F59600FBFCC1001C
:10232000D4E34500C6DA0F00C9D61900C9D7110099
:10233000CBD90E00C7D80E00C3D61100C3D80F00EA
:10234000C7DB1800E6ED8000FFFFFF00FFFFFF0086
:10235000FFFFFF00FFFFFF00FFFFFF00FFFFFF0089
:10236000FDFFE300E4EF7700C5D71200C7D81000E7
:10237000C6D80D00C7D80E00C7D80E00C7D80E00AB
:10238000C7D80E00C7D80E00C7D80E00C7DB0C0098
:10239000C7DC1400D6E64100ECF47600D8E5520024
:1023A000C0D31900C2D61600C5DB0F00C5DB0C0078
:1023B000C7D90F00C6D90F00C6D90F00C6D90F0064
:1023C000C6D90F00C6D90F00C6D90F00C5D7140053
:1023D000C8DA1400C8DC0F00C4D91200C6D8230024
:1023E000DFE86B00EAF08600D2E03500C8DA1700BB
:1023F000C9DB1200C5D80D00C4D51800C6DA180014
:10240000C5DA1100C5DA1700EFF58F00FBFCBE003E
:10241000D2E24600C5D81000C7D51900C9D71000B0
:10242000CAD90E00C7D90E00C4D71000C3D80E00F9
:10243000C7DA1700E4EC7A00FFFFFF00FFFFFF00A0
:10244000FFFFFF00FFFFFF00FFFFFF00FFFFFF0098
:10245000FDFFE300E4EF7700C5D71200C7D81000F6
:10246000C6D80D00C7D80E00C7D80E00C7D80E00BA
:10247000C7D80E00C7D80E00C7D80D00C3D80B00B0
:10248000C1D61200D0DF3700E9F46A00DEEB53005A
:10249000C6D72200C3D61900C4DA1300C5DA120069
:1024A000C7D91400C6D91400C6D91400C6D914005F
:1024B000C6D91400C6D91400C7D91400C4D8150051
:1024C000C5D91200C3D80E00C4D81200CBDC280036
:1024D000E3EE6700E9F07400CDDC2B00C3D31800F5
:1024E000C5D61700C3D51000C2D51600C4D9140034
:1024F000C2D80D00C3D91700EEF39400FAFBC00058
:10250000D1E14700C4D71000C6D41800C8D50F00C9
:10251000CAD90D00C7D90E00C4D71000C4D80F0007
:10252000C6D91A00E2EA7500FFFFFF00FFFFFF00B7
:10253000FFFFFF00FFFFFF00FFFFFF00FFFFFF00A7
:10254000FDFFE300E4EF7700C5D71200C7D8100005
:10255000C6D80D00C7D80E00C7D80E00C7D80E00C9
:10256000C7D80E00C7D80E00C7D80D00C5D81200B6
:10257000C3D51B00CDDB3800E8F16900E6F1660049
:10258000D6E34B00D2DF4400CFDD3B00D0DF370085
:10259000D2E13600D2E13600D2E13600D2E1360097
:1025A000D2E13600D2E13600D2E03600D1E13B0084
:1025B000D0E13A00CCDD3300D1DF3600D7E547006B
:1025C000EAF27100E8EE6D00CCD92A00C3D11B00FD
:1025D000C5D71800C4D90C00C4D91000C4DB0C0046
:1025E000C0D80800C4DA1900EFF49A00FBFBC5005C
:1025F000D2E24A00C4D71200C5D31700C8D50F00D5
:10260000C9D90C00C8D90D00C4D81000C4D90F0016
:10261000C6D91C00E2EA7400FFFFFF00FFFFFF00C5
:10262000FFFFFF00FFFFFF00FFFFFF00FFFFFF00B6
:10263000FDFFE300E4EF7700C5D71200C7D8100014
:10264000C6D80D00C7D80E00C7D80E00C7D80E00D8
:10265000C7D80E00C7D80E00C7D70E00C7DA1200C1
:10266000C3D71800C4D62800DBE75700E7F1700095
:10267000E9F17B00EBF18200E9EE8400E9EF8500EF
:10268000EBF08800EBF08700EBF08700EBF08700C1
:10269000EBF08700EBF08700EBF08800EAF08B00AE
:1026A000EAF18D00E7EE8600E8F07900E7EF7300CD
:1026B000E7EC6E00DCE35700C9D62400C4D6160050
:1026C000C5DB0F00C3DB0700C5DB1000C3DC0F0058
:1026D000BFD70C00C5DC1E00EEF39E00FCFCC90059
:1026E000D5E34E00C4D71500C6D31900C7D51000D6
:1026F000C9D80C00C8DA0C00C5DA0F00C4D9100024
:10270000C6D81F00E3EC7300FFFFFF00FFFFFF00D0
:10271000FFFFFF00FFFFFF00FFFFFF00FFFFFF00C5
:10272000FDFFE300E4EF7700C5D71200C7D8100023
:10273000C6D80D00C7D80E00C7D80E00C7D80E00E7
:10274000C7D80E00C7D80E00C7D80D00C6DB0A00D8
:10275000C3D80900BFD31200CDDC3600DDE85C0031
:10276000EBF27E00F2F89000F5F79C00F5F6A6007B
:10277000F4F4AD00F4F5AD00F4F5AD00F4F5AD0002
:10278000F4F5AD00F4F5AD00F5F5AC00F3F5AB00F4
:10279000F5F8AF00F4F8AB00F3F79400E9EF7B0035
:1027A000DAE05800CDD73800C7D51700C6DB0B00DC
:1027B000C4DC0A00C2D90F00C9DB2C00CBDD32001B
:1027C000C8DC2D00CDE03800F0F4A500FCFCCC0006
:1027D000D7E65000C7D91800C8D31B00C7D51100D1
:1027E000C9D80C00C8DA0D00C5DA0E00C4D9110032
:1027F000C6D82200E4ED7500FFFFFF00FFFFFF00D9
:10280000FFFFFF00FFFFFF00FFFFFF00FFFFFF00D4
:10281000FDFFE400E4EE7800C6D71200C7D8100030
:10282000C6D80D00C7D80E00C7D80E00C7D80E00F6
:10283000C7D80E00C7D80E00C7D80D00C5D90B00E9
:10284000C3D90C00C1D60E00C5DA1500C9DA2200C2
:10285000CEDD3200D1E13600D1E03800D1E03A00DF
:10286000D2E13800D2E13800D2E13800D2E13800BC
:10287000D2E13800D2E13800D2E13800D0E33400B0
:10288000CFE33B00CEDF3F00D4E23C00D2E0330098
:10289000CBDA2000C4D41200C6D60900C8DB090078
:1028A000C7DB1900CEDC4100E8EC9300F4F7B00080
:1028B000F2F7A800F1F89A00FCFEDA00FEFEDF0055
:1028C000DDEA5A00CCDD2100C8D41E00C7D51200B5
:1028D000C9D80D00C7D90B00C5D90E00C4D9120044
:1028E000C6D82400E6EE7600FFFFFF00FFFFFF00E2
:1028F000FFFFFF00FFFFFF00FFFFFF00FFFFFF00E4
:10290000FDFEE700E3EC7A00C5D71000C7D8100041
:10291000C6D70F00C6D70E00C6D80E00C7D80E0007
:10292000C7D80E00C6D80E00C6D80D00C4D70C00FC
:10293000C4D90D00C3D80C00C4D90B00C3D70E00F6
:10294000C4D71300C5D81300C4D81200C4D71000D0
:10295000C5DA0E00C5D90E00C5D90E00C5D90E00C6
:10296000C5D90E00C5D90E00C5D90D00C4DB0A00BB
:10297000C2DA0E00C1D61400C7DA1700C9DB160090
:10298000C6D70E00C3D40800C6D60800C8D80F00AA
:10299000C8D92100D4DF5200F4F6BE00FFFEEB00E0
:1029A000FEFFE700FEFFD600FFFFF400FFFFF3008D
:1029B000F0F69A00DFEB6000CDD93800C5D41C00DA
:1029C000C5D60C00C5D90900C3D90B00C2D70E006B
:1029D000C5D81F00E5EF7600FFFFFF00FFFFFF00F7
:1029E000FFFFFF00FFFFFF00FFFFFF00FFFFFE00F4
:1029F000FEFEED00E4EB8200C5D70F00C8DA100040
:102A0000C4D61400C4D51200C5D71000C5D7120013
:102A1000C6D81000C5D80F00C5D70F00C4D60E0009
:102A2000C5D80E00C5D70E00C5D70F00C5D80E00FB
:102A3000C5D80E00C5D80E00C5D80E00C5D80E00EA
:102A4000C5D70E00C5D70E00C5D70E00C5D70E00DE
:102A5000C5D70E00C5D70E00C5D70E00C5D70F00CD
:102A6000C5D70E00C5D80E00C5D70E00C5D70E00BD
:102A7000C5D80F00C5D80F00C5D71000C6D41600A2
:102A8000C7D41D00D6E15000F9FCCC00FFFFFD00CB
:102A9000FFFFFF00FFFFFF00FFFFFF00FFFFFF0042
:102AA000FFFFFA00FDFED100DEE97800CDDE4B002D
:102AB000CADD2E00CCE12A00CBDF2900CBDD2A00C5
:102AC000CFE03900EBF38F00FFFFFF00FFFFFF00B7
:102AD000FFFFFF00FFFFFF00FFFFFF00FFFFFE0003
:102AE000FEFFEE00E8EF8800C5D71100C6D80B0046
:102AF000C4D51100C3D61000C4D60F00C5D70F002F
:102B0000C6D70F00C5D70E00C4D60E00C4D611001C
:102B1000C6D81500C6D81600C6D81600C6D81600E6
:102B2000C6D81600C6D81600C6D81600C6D81600D5
:102B3000C6D81600C6D81600C6D81600C6D81600C5
:102B4000C6D81600C6D81600C6D81600C6D81600B5
:102B5000C6D81600C6D81600C6D81600C6D81600A5
:102B6000C6D81600C6D81600C6D71500C9D810009A
:102B7000C8D71400D3DF4A00F6F9C900FFFFFD00F3
:102B8000FFFFFF00FFFFFF00FFFFFF00FFFFFF0051
:102B9000FFFFFE00FEFFED00F5FAB200EBF592003C
:102BA000E7F37E00E7F17B00E3EC7900E5EF7C00E2
:102BB000E7F08800F9FACB00FFFFFF00FFFFFF00FE
:102BC000FFFFFF00FFFFFF00FFFFFF00FFFFFF0011
:102BD000FFFFF100EDF39800C7D92000C4D50D0028
:102BE000C5D61500C5D51300C6D71300C7D8130026
:102BF000C8D91300C7D91200C7D71000C5D70E0017
:102C0000C6D80F00C6D80E00C6D80E00C6D80E0013
:102C1000C6D80E00C6D80E00C6D80E00C6D80E0004
:102C2000C6D80E00C6D80E00C6D80E00C6D80E00F4
:102C3000C6D80E00C6D80E00C6D80E00C6D80E00E4
:102C4000C6D80E00C6D80E00C6D80E00C6D80E00D4
:102C5000C6D80E00C6D80E00C6D80D00C9DA0900C5
:102C6000C9DA1200D4E15200F7FAD000FFFFFE00EB
:102C7000FFFFFF00FFFFFF00FFFFFF00FFFFFF0060
:102C8000FFFFFF00FFFFFE00FFFFED00FDFFE00084
:102C9000FDFEDB00FCFEDB00FCFDDC00FCFDDB00E0
:102CA000FCFDDE00FEFFF600FFFFFF00FFFFFF0060
:102CB000FFFFFF00FFFFFF00FFFFFF00FFFFFF0020
:102CC000FFFFF600F1F6AC00CEDD3900C5D51600E9
:102CD000C7D71500C6D61400C8D71300C8D813002C
:102CE000C9D91400C8D91200C8D81100C6D70D0020
:102CF000C6D70A00C6D70900C6D70900C6D709003B
:102D0000C6D70900C6D70900C6D70900C6D709002B
:102D1000C6D70900C6D70900C6D70900C6D709001B
:102D2000C6D70900C6D70900C6D70900C6D709000B
:102D3000C6D70900C6D70900C6D70900C6D70900FB
:102D4000C6D70900C6D70900C6D80800C6D90700EB
:102D5000C9DA1B00D9E46300F9FCDA00FFFFFF00C9
:102D6000FFFFFF00FFFFFF00FFFFFF00FFFFFF006F
:102D7000FFFFFF00FFFFFF00FFFFFE00FFFFFD0062
:102D8000FFFFFD00FFFFFD00FFFFFE00FFFFFD0056
:102D9000FFFFFD00FFFFFE00FFFFFF00FFFFFF0042
:102DA000FFFFFF00FFFFFF00FFFFFF00FFFFFF002F
:102DB000FFFFFC00F9FBD200E0EA7300CEDE320038
:102DC000C7D90F00C7D80F00C5D70D00C5D70C0055
:102DD000C6D70B00C6D80A00C7D80A00C6D80C0050
:102DE000C7D80D00C7D80D00C7D80D00C7D80D0033
:102DF000C7D80D00C7D80D00C7D80D00C7D80D0023
:102E0000C7D80D00C7D80D00C7D80D00C7D80D0012
:102E1000C7D80D00C7D80D00C7D80D00C7D80D0002
:102E2000C7D80D00C7D80D00C7D80D00C7D80D00F2
:102E3000C7D80D00C7D80D00C5D70D00C0D31000EE
:102E4000CBDA3800E4ED8B00FDFEED00FFFFFF0064
:102E5000FFFFFF00FFFFFF00FFFFFF00FFFFFF007E
:102E6000FFFFFF00FFFFFF00FFFFFF00FFFFFF006E
:102E7000FFFFFF00FFFFFF00FFFFFF00FFFFFF005E
:102E8000FFFFFF00FFFFFF00FFFFFF00FFFFFF004E
:102E9000FFFFFF00FFFFFF00FFFFFF00FFFFFF003E
:102EA000FFFFFF00FDFEEF00F2F7AB00DCE856008D
:102EB000C9D91500C8D81700C5D51200C4D4100050
:102EC000C5D61000C5D70F00C5D60F00C5D6120055
:102ED000C6D71400C6D71400C6D71400C6D714002E
:102EE000C6D71400C6D71400C6D71400C6D714001E
:102EF000C6D71400C6D71400C6D71400C6D714000E
:102F0000C6D71400C6D71400C6D71400C6D71400FD
:102F1000C6D71400C6D71400C6D71400C6D71400ED
:102F2000C6D71400C6D71400C6D71700C7D72A00C3
:102F3000DBE56700F3F7B700FEFEF800FFFFFF00D8
:102F4000FFFFFF00FFFFFF00FFFFFF00FFFFFF008D
:102F5000FFFFFF00FFFFFF00FFFFFF00FFFFFF007D
:102F6000FFFFFF00FFFFFF00FFFFFF00FFFFFF006D
:102F7000FFFFFF00FFFFFE00FFFFFF00FFFFFF005E
:102F8000FFFFFF00FFFFFF00FFFFFF00FFFFFF004D
:102F9000FFFFFF00FFFFFE00FDFEDE00F3F9A500CE
:102FA000E6EE7600E3EB7400DFE77100DFE66F002A
:102FB000DFE66E00E0E96E00E0E96E00E0E96C003B
:102FC000E0E86B00E0E86B00E0E86B00E0E86B0035
:102FD000E0E86B00E0E86B00E0E86B00E0E86B0025
:102FE000E0E86B00E0E86B00E0E86B00E0E86B0015
:102FF000E0E86B00E0E86B00E0E86B00E0E86B0005
:10300000E0E86B00E0E86B00E0E86B00E0E86B00F4
:10301000E0E86B00E0E86B00E0E86C00E4EC7900CD
:10302000F3F7AD00FDFEE400FFFFFE00FFFFFF0031
:10303000FFFFFF00FFFFFF00FFFFFF00FFFFFF009C
:10304000FFFFFF00FFFFFF00FFFFFF00FFFFFF008C
:10305000FFFFFF00FFFFFF00FFFFFF00FFFFFF007C
:10306000FFFFFF00FFFFFD00FFFFFF00FFFFFF006E
:10307000FFFFFF00FFFFFF00FFFFFF00FFFFFF005C
:10308000FFFFFF00FFFFFF00FFFFF600FEFFE30072
:10309000FDFDDC00FCFDD900FBFBD400FBFAD300F6
:1030A000FBFBD200FBFCD200FBFCD200FBFCCE0001
:1030B000FBFCCA00FBFCCA00FBFCCA00FBFCCA000C
:1030C000FBFCCA00FBFCCA00FBFCCA00FBFCCA00FC
:1030D000FBFCCA00FBFCCA00FBFCCA00FBFCCA00EC
:1030E000FBFCCA00FBFCCA00FBFCCA00FBFCCA00DC
:1030F000FBFCCA00FBFCCA00FBFCCA00FBFCCA00CC
:10310000FBFCCA00FBFCCA00FBFCC900FCFDC600BE
:10311000FEFEE100FFFFFA00FFFFFF00FFFFFF00E0
:10312000FFFFFF00FFFFFF00FFFFFF00FFFFFF00AB
:10313000FFFFFF00FFFFFF00FFFFFF00FFFFFF009B
:10314000FFFFFF00FFFFFF00FFFFFF00FFFFFF008B
:10315000FFFFFF00FFFFFF00FFFFFF00FFFFFF007B
:103B1000000000FF020100FF564004FF70540AFF3E
:103B2000C69716FFFAC221FFFBC11DF4FBC21FFF9F
:103B3000BA8E12FF050300FF010100FF000000FF25
:103B4000000000FF010101FF313131FFD0D0D0FF73
:103B5000D7D7D7FED7D7D7D6D5D5D58CCFCFCF937C
:103B6000C4C4C4E6BBBBBBFFA0A0A0FF0B0B0BFFF4
:103B7000000000FF000000FF000000FF000000FF49
:103B8000000000FF000000FF000000FF000000FF39
:103B9000000000FF000000FF000000FF000000FF29
:103BA000000000FF000000FF000000FF000000FF19
:103BB000000000FF000000FF000000FF000000FF09
:103BC000000000FF000000FF000000FF000000FFF9
:103BD000000000FF030200FFD19B10FFF2B723FF9C
:103BE000F4B921FEF7BB1DE3FBC42828F8BA17F48B
:103BF000F3B820FFA27814FF382702FF010100FF6D
:103C0000010101FF1A1A1AFFC1C1C1FFD6D6D6FEA3
:103C1000D7D7D7ABDADADA0BD8D8D802CCCCCC03EA
:103C2000BEBEBE1CB5B5B5DFADADADFF262626FFC9
:103C3000000000FF000000FF000000FF000000FF88
:103C4000000000FF000000FF000000FF000000FF78
:103C5000000000FF000000FF000000FF000000FF68
:103C6000000000FF000000FF000000FF000000FF58
:103C7000000000FF000000FF010000FF000000FF47
:103C8000000000FF000000FF000000FF000000FF38
:103C9000000000FF040200FFD2990CFFF3B214A24F
:103CA000F4B82546F5B9201DF6B20204F4B7219008
:103CB000EFAC18FDEBAA1CFFAE7808FF030201FF72
:103CC0000A0A0AFFA6A6A6FFD6D6D6FFD6D6D6CC17
:103CD000D9D9D90CD3D3D302C8C8C801B9B9B9024C
:103CE000B3B3B303B2B2B277ADADADFE363636FF85
:103CF000000000FF000000FF000000FF000000FFC8
:103D0000000000FF000000FF000000FF000000FFB7
:103D1000000000FF000000FF000000FF000000FFA7
:103D2000000000FF000000FF000000FF010000FF96
:103D30001C1500FF403000FF413000FF403000FF05
:103D40000C0A00FF010000FF000000FF000000FF60
:103D5000000000FF030200FFD1960BFFEDA60EEF5F
:103D6000ECA1001AECA10001ECA10001EDA50E03ED
:103D7000EEAC1F35EBA613F6B07A07FF070603FF7C
:103D80008B8B8BFFD5D5D5FFD7D7D7E4D9D9D92001
:103D9000D4D4D401CACACA01BCBCBC01B0B0B00101
:103DA000ACACAC02AEAEAE5EACACACFE363636FF02
:103DB000000000FF000000FF000000FF000000FF07
:103DC000000000FF000000FF000000FF000000FFF7
:103DD000000000FF000000FF000000FF000000FFE7
:103DE000000000FF000000FF000000FF020100FFD4
:103DF0008C6B09FFF7C022FFF8C120FFF7C022FF3C
:103E0000B78B0DFF080600FF020100FF010100FF54
:103E1000010000FF030200FF8D5E04FFE39608FD32
:103E2000E5960B35E2900002E2900002E391002D4E
:103E3000E59806DFE9A211FFB07A09FF656563FF27
:103E4000D5D5D5FFD7D7D7F5D8D8D83DD5D5D50234
:103E5000CCCCCC02BEBEBE01B1B1B101ACACAC02A7
:103E6000ABABAB03ACACAC9DAAAAAAFF333333FF18
:103E7000000000FF000000FF000000FF000000FF46
:103E8000000000FF000000FF000000FF000000FF36
:103E9000000000FF000000FF000000FF000000FF26
:103EA000000000FF000000FF000000FF040300FF0F
:103EB000BD9011FFF9C120EDFBC52C7CFAC226FD97
:103EC000F7C029FFA37A09FF5E4503FF5E4404FFA4
:103ED0005C4201FF040300FF6F4705FFDE8E0AE32B
:103EE000DF8E0A2DDD88005ADD870012DE88007B18
:103EF000DD8B00FEBC7A02FF706042FFD3D3D2FF9D
:103F0000D7D7D7FED8D8D862D7D7D703CFCFCF014E
:103F1000C0C0C001B3B3B301ACACAC01ABABAB033D
:103F2000ABABAB49ABABABFAA6A6A6FF131313FF23
:103F3000000000FF000000FF000000FF000000FF85
:103F4000000000FF000000FF000000FF000000FF75
:103F5000000000FF000000FF000000FF000000FF65
:103F6000000000FF010000FF030200FF412E01FFDF
:103F7000F3B619FFF9BE1EB6FAC12204F9C32F75B4
:103F8000F6BE2DFCF4BF3AFEF3BD34FEF3BB2DFFAD
:103F9000EFB115FF050300FF6D4504FFD98908FF48
:103FA000DA8804FEDB8701FDDC8600D6DD8700B8F9
:103FB000DB8601FF413520FFCDCCCBFFD7D7D6FE26
:103FC000D7D7D78DD8D8D802D0D0D001C2C2C2019D
:103FD000B5B5B501ADADAD01ACACAC01ABABAB2A89
:103FE000ABABABECAAAAAAFF666666FF010101FFB4
:103FF000000000FF000000FF000000FF000000FFC5
:10400000000000FF000000FF000000FF000000FFB4
:10401000000000FF000000FF000000FF000000FFA4
:10402000010000FF291C01FFA27411FFE7AC29FF6A
:10403000F1B628FEF5B81E79F5B10103F6B81D03F7
:10404000F6C23E3AF5C24158F6C23E3DF4B619A555
:10405000EFAF0FFF050300FF221500FF452A00FF09
:10406000492C00FFA56400FFD78300FFDA8501FF1C
:10407000D9890BFFC4BFB7FFD6D6D6FED6D6D6B6E3
:10408000D9D9D908D2D2D202C4C4C401B7B7B701B2
:10409000ADADAD01ABABAB02ABABAB12AAAAAAD52F
:1040A000A9A9A9FF858585FF060606FF000000FF78
:1040B000000000FF000000FF000000FF000000FF04
:1040C000000000FF000000FF000000FF000000FFF4
:1040D000000000FF000000FF000000FF000000FFE4
:1040E000020100FFB77C0AFFEAAC2CFFEDAD27F818
:1040F000F0B42E9AF1B4250DF0A70002EFA700014D
:10410000EFA70102EFA80303F0A70113F0AD12E33C
:10411000EFAE0EFF040300FF000000FF010000FFF0
:10412000010100FF060300FF110A00FF160F05FF43
:10413000ACA69EFFD7D7D6FFD6D6D6D7D9D9D91514
:10414000D3D3D301C7C7C702B9B9B901AEAEAE0167
:10415000ABABAB02ABABAB06ABABABB4AAAAAAFEA4
:10416000969696FF101010FF000000FF000000FF61
:10417000000000FF000000FF000000FF000000FF43
:10418000000000FF000000FF000000FF000000FF33
:10419000000000FF000000FF000000FF000000FF23
:1041A000030200FFBA7E09FFE9A41ACCEFB53B1C5D
:1041B000EBA82002E99C0001E99C0001E99B0001B9
:1041C000E99B0001E99C0001E99D0181EAA006FE4E
:1041D000C28802FF030200FF000000FF000000FF92
:1041E000000000FF000000FF020202FF7A7A79FF60
:1041F000D5D5D5FFD7D7D7EED9D9D929D4D4D4019D
:10420000C9C9C901BBBBBB01B0B0B001ACACAC010A
:10421000ABABAB03ABABAB8AABABABFEA4A4A4FF25
:10422000232323FF010101FF000000FF000000FF26
:10423000000000FF000000FF000000FF000000FF82
:10424000000000FF000000FF000000FF000000FF72
:10425000000000FF000000FF000000FF000000FF62
:10426000020100FFB97D08FFE8A21BF8E597078D62
:10427000E3910014E2900002E2900002E29100015A
:10428000E2900001E2900003E4980FA0E39A13FE8D
:104290007D5107FF030200FF000000FF000000FF48
:1042A000000000FF010101FF2E2E2EFFAEAEAEFF7B
:1042B000CCCCCCFAD8D8D84CD6D6D602CCCCCC02E2
:1042C000BDBDBD01B1B1B101ACACAC02ACACAC0296
:1042D000ABABAB5FAAAAAAFDA9A9A9FF3B3B3BFFD9
:1042E000010101FF000000FF000000FF000000FFCF
:1042F000000000FF000000FF000000FF000000FFC2
:10430000000000FF000000FF000000FF000000FFB1
:10431000000000FF000000FF000000FF000000FFA1
:10432000010100FF5E3D01FFD28802FFE08F00FE29
:10433000DE8A00D6DD88000FDD880002DD880001FE
:10434000DD880002DD880003E39B2049E09415FE30
:10435000B27109FF030100FF000000FF000000FF31
:10436000000000FF1B1B1BFF6F6F6FFF868686FE22
:10437000B6B6B676D6D6D603CECECE01C0C0C00174
:10438000B3B3B301ACACAC02ABABAB02ABABAB39D0
:10439000AAAAAAF5A9A9A9FF5C5C5CFF020202FF18
:1043A000000000FF000000FF000000FF000000FF11
:1043B000000000FF000000FF000000FF000000FF01
:1043C000000000FF000000FF000000FF000000FFF1
:1043D000000000FF000000FF000000FF000000FFE1
:1043E000000000FF020100FF1D1200FFA56600FF94
:1043F000DB8600FEDC870049DC870002DC87000DDD
:10440000DC870045DD87002ADF91120CDF9010DC8D
:10441000B27008FF030200FF000000FF000000FF71
:104420000F0F0FFF676767FF727272FE747474A0DC
:104430007171710498989801C0C0C001B4B4B401FE
:10444000ACACAC01ACACAC01ABABAB1FABABABE35E
:10445000ACABAAFF827E73FF171204FF130E00FF9E
:104460000C0A00FF010100FF000000FF000000FF38
:10447000000000FF000000FF000000FF000000FF40
:10448000000000FF000000FF000000FF000000FF30
:10449000000000FF000000FF000000FF000000FF20
:1044A000000000FF000000FF010000FF2C1B00FFC8
:1044B000D98400FEDC860062DC860021DC8600D325
:1044C000DB8500FDDB8703FDDA8705E9DB8A09FC74
:1044D000B06E06FF020100FF000000FF030303FFB0
:1044E0005B5B5BFF737373FF6C6C6CC67272720BF9
:1044F0003E3E3E02212121015F5F5F01A8A8A80185
:10450000ABABAB01AAAAAA0DAAAAAAC7ABABAAFFDA
:10451000939088FFF0B612FFFABC0AFFF9BB0AFFBE
:10452000E8AE08FF2B2000FF030200FF020100FF9E
:10453000010000FF000000FF000000FF000000FF7E
:10454000000000FF000000FF000000FF000000FF6F
:10455000000000FF000000FF000000FF000000FF5F
:10456000000000FF000000FF000000FF030200FF4A
:10457000D78300FFDA8500CADA8500E1DA8500FF1B
:10458000C77900FF643C00FF603B00FF603B00FF19
:104590004D2F00FF010100FF010101FF4B4B4BFFBD
:1045A000727272FF6B6B6BE27676761E4444440146
:1045B0002222220212121201121212014040400263
:1045C0009F9F9F039F9F9FA3A9A9A8FE9F9E9CFFBB
:1045D00069541AFFF9BC12FFFCBE10C4FBBE12DE08
:1045E000F9BD18FFDCA40BFF8B6605FF896302FF92
:1045F0002B1F00FF000000FF000000FF000000FF75
:10460000000000FF000000FF000000FF000000FFAE
:10461000000000FF000000FF000000FF000000FF9E
:10462000000000FF000000FF000000FF020100FF8B
:10463000995D00FFA26300FFA26300FF955B00FF8E
:10464000150D00FF020100FF010100FF010100FF45
:10465000010000FF010101FF393939FF727272FF59
:104660006B6B6BF4757575384B4B4B01252525012C
:104670001313130111111101111111011212120260
:1046800033333378727171FEAAA69BFF9C7B30FF97
:10469000E1A410FFF5B714FEFABE1A4BFAC1212EA1
:1046A000F7B814DEF5B617FBF4B415FBF1AF0BFF4A
:1046B0006A4C00FF010100FF000000FF000000FF46
:1046C000000000FF000000FF000000FF000000FFEE
:1046D000000000FF000000FF000000FF000000FFDE
:1046E000000000FF000000FF000000FF000000FFCE
:1046F000020100FF030100FF030100FF020100FFB0
:10470000010000FF000000FF000000FF000000FFAC
:10471000010101FF252525FF6F6F6FFF6C6C6CFD9C
:104720007373735B5454540329292902141414011C
:104730001111110110101002101010021111114E60
:10474000171717FA2A2928FF9D7B31FFEBA712FFC5
:10475000EFAC16FEF2B012BEF5B5120AF5B20603C2
:10476000F5B9210AF5B8201FF4B20D5DF1AD07FFD0
:104770006B4D00FF020100FF000000FF000000FF82
:10478000000000FF000000FF000000FF000000FF2D
:10479000000000FF000000FF000000FF000000FF1D
:1047A000000000FF000000FF000000FF000000FF0D
:1047B000000000FF000000FF000000FF000000FFFD
:1047C000000000FF000000FF000000FF000000FFED
:1047D000181818FF696969FF6D6D6DFE6F6F6F883E
:1047E0005E5E5E022D2D2D011616160111111101AE
:1047F00011111101101010011010102D111111EED6
:10480000101010FF0C0B0AFF765000FFEBA20BF606
:10481000EEAB1847EFAE1D08EDA40001EEA40001B9
:10482000EEA40001EEA40002EEA607C6EEA906FF64
:104830006A4B00FF010100FF000000FF000000FFC5
:10484000000000FF000000FF000000FF000000FF6C
:10485000000000FF000000FF000000FF000000FF5C
:10486000000000FF000000FF000000FF000000FF4C
:10487000000000FF000000FF000000FF000000FF3C
:10488000000000FF000000FF000000FF0C0C0CFF08
:104890005F5F5FFF6E6E6EFE6A6A6AB1666666068D
:1048A00031313101171717011111110111111101C6
:1048B0001010100210101015101010DA0F0F0FFF4B
:1048C0000B0B0BFF020100FF754F00FFE9A10BFF6F
:1048D000E89C049BE6970010E6970001E69700012C
:1048E000E6970002E7990417E79905FDE39603FFB1
:1048F000221700FF000000FF000000FF000000FF83
:10490000000000FF000000FF000000FF000000FFAB
:10491000000000FF000000FF000000FF000000FF9B
:10492000000000FF000000FF000000FF000000FF8B
:10493000000000FF000000FF000000FF000000FF7B
:10494000000000FF000000FF050505FF515151FF69
:104950006E6E6EFF676767D26D6D6D123737370207
:104960001A1A1A0111111101101010011010100162
:1049700010101008101010B8101010FE0D0D0DFFC3
:10498000010101FF010000FF382500FFD48D01FF68
:10499000E29200FEE08D0099DF8B0002DF8B0002C7
:1049A000DF8B0003E1941105E08F05D8DB8903FF5D
:1049B000100A00FF000000FF000000FF000000FFE1
:1049C000000000FF000000FF000000FF000000FFEB
:1049D000000000FF000000FF000000FF000000FFDB
:1049E000000000FF000000FF000000FF000000FFCB
:1049F000000000FF000000FF000000FF000000FFBB
:104A0000000000FF010101FF414141FF6E6E6EFF9A
:104A1000656565ED6F6F6F263D3D3D011D1D1D01F7
:104A200011111101111111011010100110101003BA
:104A300010101090101010FE0F0F0FFF030303FF54
:104A4000000000FF000000FF010100FF231600FF2F
:104A5000CC7F00FFDC8600CFDD870004DD870057B8
:104A6000DD88009FDD880171DD8A04C3DA8703FFDA
:104A7000100A00FF000000FF000000FF000000FF20
:104A8000000000FF000000FF000000FF000000FF2A
:104A9000000000FF000000FF000000FF000000FF1A
:104AA000000000FF000000FF000000FF000000FF0A
:104AB000000000FF000000FF000000FF000000FFFA
:104AC000010101FF2C2C2CFF6D6D6DFF656565F8F4
:104AD0006E6E6E47454545021F1F1F0211111101E1
:104AE0001111110110101002101010031010106598
:104AF0000F0F0FFE0F0F0FFF050505FF000000FF52
:104B0000000000FF000000FF000000FF030100FFA5
:104B1000895300FFDA8500F2DC8600A6DA8500FE04
:104B2000D98500FED98500FFD88400FFCD7D00FF28
:104B30000C0700FF000000FF000000FF000000FF66
:104B4000000000FF000000FF000000FF000000FF69
:104B5000000000FF000000FF000000FF000000FF59
:104B6000000000FF000000FF000000FF000000FF49
:104B7000000000FF000000FF000000FF000000FF39
:104B80001C1C1CFF6A6A6AFF656565FE6B6B6B6FB8
:104B90004F4F4F0323232301121212011010100153
:104BA00010101001101010021010103F101010F70C
:104BB0000F0F0FFF080808FF000000FF000000FFB4
:104BC000000000FF000000FF000000FF010000FFE8
:104BD000673E00FFBC7300FFBD7400FFBD7300FFA4
:104BE000663E00FF1E1200FF1E1100FF140C00FFA6
:104BF000010000FF000000FF000000FF000000FFB8
:104C0000000000FF000000FF000000FF000000FFA8
:104C1000000000FF000000FF000000FF000000FF98
:104C2000000000FF000000FF000000FF000000FF88
:104C3000000000FF000000FF000000FF101010FF48
:104C4000636363FF666666FE6666669A5959590431
:104C5000272727011313130111111101101010013F
:104C60001010100110101021101010E6101010FF7D
:104C70000A0A0AFF000000FF000000FF000000FF1A
:104C8000000000FF000000FF000000FF000000FF28
:104C9000010100FF030100FF030200FF030100FF09
:104CA000020100FF000000FF000000FF000000FF05
:104CB000000000FF000000FF000000FF000000FFF8
:104CC000000000FF000000FF000000FF000000FFE8
:104CD000000000FF000000FF000000FF000000FFD8
:104CE000000000FF000000FF000000FF000000FFC8
:104CF000000000FF000000FF070707FF545454FFA7
:104D0000666666FE616161C1606060082A2A2A02E7
:104D100014141401111111011010100110101002BF
:104D20001010100F101010CC0F0F0FFF0C0C0CFFF9
:104D3000000000FF000000FF000000FF000000FF77
:104D4000000000FF000000FF000000FF000000FF67
:104D5000000000FF000000FF000000FF000000FF57
:104D6000000000FF000000FF000000FF000000FF47
:104D7000000000FF000000FF000000FF000000FF37
:104D8000000000FF000000FF000000FF000000FF27
:104D9000000000FF000000FF000000FF000000FF17
:104DA000000000FF000000FF000000FF000000FF07
:104DB000000000FF020202FF474747FF656565FFED
:104DC0005E5E5EDD6565651A2F2F2F0116161602D1
:104DD0001111110111111101101010021010100405
:104DE000101010A90F0F0FFE0E0E0EFF010101FF94
:104DF000000000FF000000FF000000FF000000FFB7
:104E0000000000FF000000FF000000FF000000FFA6
:104E1000000000FF000000FF000000FF000000FF96
:104E2000000000FF000000FF000000FF000000FF86
:104E3000000000FF000000FF000000FF000000FF76
:104E4000000000FF000000FF000000FF000000FF66
:104E5000000000FF000000FF000000FF000000FF56
:104E6000000000FF000000FF000000FF000000FF46
:104E7000010101FF323232FF646464FF5C5C5CF369
:104E80006565653438383801181818011111110199
:104E90001111110110101001101010021010107DCE
:104EA000101010FE0F0F0FFF040404FF000000FF9E
:104EB000000000FF000000FF000000FF000000FFF6
:104EC000000000FF000000FF000000FF000000FFE6
:104ED000000000FF000000FF000000FF000000FFD6
:104EE000000000FF000000FF000000FF000000FFC6
:104EF000000000FF000000FF000000FF000000FFB6
:104F0000000000FF000000FF000000FF000000FFA5
:104F1000000000FF000000FF000000FF000000FF95
:104F2000000000FF000000FF000000FF000000FF85
:104F3000222222FF626262FF5B5B5BFD6464645558
:104F40003F3F3F031B1B1B021111110110101001E9
:104F50001010100210101002101010540F0F0FFC40
:104F60000F0F0FFF060606FF000000FF000000FF06
:104F7000000000FF000000FF000000FF000000FF35
:104F8000000000FF000000FF000000FF000000FF25
:104F9000000000FF000000FF000000FF000000FF15
:104FA000000000FF000000FF000000FF000000FF05
:104FB000000000FF000000FF000000FF000000FFF5
:104FC000000000FF000000FF000000FF000000FFE5
:104FD000000000FF000000FF000000FF000000FFD5
:104FE000000000FF000000FF000000FF111111FF92
:104FF0005D5D5DFF5B5B5BFE5F5F5F814949490211
:105000001D1D1D02111111011111110110101002AD
:105010001010100210101032101010F00F0F0FFFB0
:10502000080808FF000000FF000000FF000000FF6C
:10503000000000FF000000FF000000FF000000FF74
:10504000000000FF000000FF000000FF000000FF64
:10505000000000FF000000FF000000FF000000FF54
:10506000000000FF000000FF000000FF000000FF44
:10507000000000FF000000FF000000FF000000FF34
:10508000000000FF000000FF000000FF000000FF24
:10509000000000FF000000FF000000FF000000FF14
:1050A000000000FF000000FF080808FF535353FFF3
:1050B0005C5C5CFE595959AC5353530621212101C4
:1050C0001212120111111101101010011010100113
:1050D00010101017101010DC101010FF0B0B0BFF2E
:1050E000000000FF000000FF000000FF000000FFC4
:1050F000000000FF000000FF000000FF000000FFB4
:10510000000000FF000000FF000000FF000000FFA3
:10511000000000FF000000FF000000FF000000FF93
:10512000000000FF000000FF000000FF000000FF83
:10513000000000FF000000FF000000FF000000FF73
:10514000000000FF000000FF000000FF000000FF63
:10515000000000FF000000FF000000FF000000FF53
:10516000000000FF030303FF474747FF5B5B5BFF54
:10517000555555CE5959590F2525250212121201A0
:105180001010100110101001101010011010100953
:10519000101010BE101010FE0D0D0DFF000000FFCE
:1051A000000000FF000000FF000000FF000000FF03
:1051B000000000FF000000FF000000FF000000FFF3
:1051C000000000FF000000FF000000FF000000FFE3
:1051D000000000FF000000FF000000FF000000FFD3
:1051E000000000FF000000FF000000FF000000FFC3
:1051F000000000FF000000FF000000FF000000FFB3
:10520000000000FF000000FF000000FF000000FFA2
:10521000000000FF000000FF000000FF000000FF92
:10522000010101FF363636FF5A5A5AFF535353E9EC
:105230005B5B5B222B2B2B02141414021111110146
:105240001010100110101002101010041010109601
:105250000F0F0FFE0F0F0FFF020202FF000000FFF3
:10526000000000FF000000FF000000FF000000FF42
:10527000000000FF000000FF000000FF000000FF32
:10528000000000FF000000FF000000FF000000FF22
:10529000000000FF000000FF000000FF000000FF12
:1052A000000000FF000000FF000000FF000000FF02
:1052B000000000FF000000FF000000FF000000FFF2
:1052C000000000FF000000FF000000FF000000FFE2
:1052D000000000FF000000FF000000FF000000FFD2
:1052E000272727FF575757FF525252F85A5A5A4307
:1052F000323232021515150111111101111111016E
:1053000010101001101010021010106A101010FE72
:10531000101010FF040404FF000000FF000000FF55
:10532000000000FF000000FF000000FF000000FF81
:10533000000000FF000000FF000000FF000000FF71
:10534000000000FF000000FF000000FF000000FF61
:10535000000000FF000000FF000000FF000000FF51
:10536000000000FF000000FF000000FF000000FF41
:10537000000000FF000000FF000000FF000000FF31
:10538000000000FF000000FF000000FF000000FF21
:10539000000000FF000000FF000000FF171717FFCC
:1053A000545454FF515151FD575757683B3B3B02F2
:1053B0001717170211111101101010011010100110
:1053C0001010100310101044101010F90F0F0FFFE1
:1053D000080808FF000000FF000000FF000000FFB9
:1053E000000000FF000000FF000000FF000000FFC1
:1053F000000000FF000000FF000000FF000000FFB1
:10540000000000FF000000FF000000FF000000FFA0
:10541000000000FF000000FF000000FF000000FF90
:10542000000000FF000000FF000000FF000000FF80
:10543000000000FF000000FF000000FF000000FF70
:10544000000000FF000000FF000000FF000000FF60
:10545000000000FF000000FF0D0D0DFF4D4D4DFF42
:10546000515151FE525252944545450319191901A3
:105470001111110110101001101010021010100164
:10548000101010250F0F0FE9101010FF090909FF68
:10549000000000FF000000FF000000FF000000FF10
:1054A000000000FF000000FF000000FF000000FF00
:1054B000000000FF000000FF000000FF000000FFF0
:1054C000000000FF000000FF000000FF000000FFE0
:1054D000000000FF000000FF000000FF000000FFD0
:1054E000000000FF000000FF000000FF000000FFC0
:1054F000000000FF000000FF000000FF000000FFB0
:10550000000000FF000000FF000000FF000000FF9F
:10551000000000FF030303FF444444FF515151FEC8
:105520004C4C4CBD4E4E4E071C1C1C02111111015F
:105530001010100110101001101010021010101097
:10554000101010CF0F0F0FFF0C0C0CFF000000FF0E
:10555000000000FF000000FF000000FF000000FF4F
:10556000000000FF000000FF000000FF000000FF3F
:10557000000000FF000000FF000000FF000000FF2F
:10558000000000FF000000FF000000FF000000FF1F
:10559000000000FF000000FF000000FF000000FF0F
:1055A000000000FF000000FF000000FF000000FFFF
:1055B000000000FF000000FF000000FF000000FFEF
:1055C000000000FF000000FF000000FF000000FFDF
:1055D000010101FF383838FF515151FF494949DA7B
:1055E000525252171F1F1F011111110111111101E8
:1055F000101010011010100110101005101010AF35
:10560000101010FE0E0E0EFF010101FF000000FF42
:10561000000000FF000000FF000000FF000000FF8E
:10562000000000FF000000FF000000FF000000FF7E
:10563000000000FF000000FF000000FF000000FF6E
:10564000000000FF000000FF000000FF000000FF5E
:10565000000000FF000000FF000000FF000000FF4E
:10566000000000FF000000FF000000FF000000FF3E
:10567000000000FF000000FF000000FF000000FF2E
:10568000000000FF000000FF000000FF000000FF1E
:105690002A2A2AFF4F4F4FFF484848EF51515130B7
:1056A00027272702121212011010100110101001EA
:1056B000101010021010100310101083101010FEA4
:1056C0000F0F0FFF030303FF000000FF000000FFA8
:1056D000000000FF000000FF000000FF000000FFCE
:1056E000000000FF000000FF000000FF000000FFBE
:1056F000000000FF000000FF000000FF000000FFAE
:10570000000000FF000000FF000000FF000000FF9D
:10571000000000FF000000FF000000FF000000FF8D
:10572000000000FF000000FF000000FF000000FF7D
:10573000000000FF000000FF000000FF000000FF6D
:10574000000000FF000000FF000000FF121212FF27
:10575000484848FF474747FD505050502F2F2F02D1
:105760001313130111111101101010011010100169
:105770001010100210101058101010FC101010FF14
:10578000060606FF000000FF000000FF000000FF0B
:10579000000000FF000000FF000000FF000000FF0D
:1057A000000000FF000000FF000000FF000000FFFD
:1057B000000000FF000000FF000000FF000000FFED
:1057C000000000FF000000FF000000FF000000FFDD
:1057D000000000FF000000FF000000FF000000FFCD
:1057E000000000FF000000FF000000FF000000FFBD
:1057F000000000FF000000FF000000FF000000FFAD
:10580000000000FF000000FF000000FF202020FF3C
:105810003E3E3EFE4848487E373737021414140295
:1058200011111101101010011010100210101001B0
:10583000101010360F0F0FF30F0F0FFF080808FF9F
:10584000000000FF000000FF000000FF000000FF5C
:10585000000000FF000000FF000000FF000000FF4C
:10586000000000FF000000FF000000FF000000FF3C
:10587000000000FF000000FF000000FF000000FF2C
:10588000000000FF000000FF000000FF000000FF1C
:10589000000000FF000000FF000000FF000000FF0C
:1058A000000000FF000000FF000000FF000000FFFC
:1058B000000000FF000000FF000000FF000000FFEC
:1058C000000000FF000000FF000000FF1B1B1BFF8B
:1058D000323232E93A3A3A0C161616011111110118
:1058E0001010100110101001101010021111111AD7
:1058F000101010E0111111FF0D0D0DFF010101FF3E
:10590000010101FF010101FF010101FF010101FF8F
:10591000010101FF010101FF010101FF010101FF7F
:10592000010101FF010101FF010101FF010101FF6F
:10593000010101FF010101FF010101FF010101FF5F
:10594000010101FF010101FF010101FF010101FF4F
:10595000010101FF010101FF010101FF010101FF3F
:10596000000000FF000000FF000000FF000000FF3B
:10597000000000FF000000FF000000FF000000FF2B
:10598000020202FF020202FF020202FF1A1A1AFFBB
:10599000252525C91B1B1B03111111011111110113
:1059A00010101001111111011111110A1C1C1CC23F
:1059B0002D2D2DFE525252FF5C5C5CFF5B5B5BFF4A
:1059C0005B5B5BFF5B5B5BFF5B5B5BFF5B5B5BFF97
:1059D0005B5B5BFF5B5B5BFF5B5B5BFF5B5B5BFF87
:1059E0005B5B5BFF5B5B5BFF5B5B5BFF5B5B5BFF77
:1059F0005B5B5BFF5B5B5BFF5B5B5BFF5B5B5BFF67
:105A00005B5B5BFF5B5B5BFF5B5B5BFF5B5B5BFF56
:105A10003D3D3DFF3D3D3DFF3D3D3DFF3D3D3DFFAE
:105A2000393939FF202020FF1F1F1FFF1F1F1FFFB5
:105A3000040404FF020202FF020202FF020202FF4C
:105A4000616161FF838383FF999999FF858585FF54
:105A5000494949EC131313101111110110101002D0
:105A600010101002121212043333339C676767FD63
:105A70008D8D8DFEA0A0A0FEA1A1A1FEA2A2A2FDDF
:105A8000A1A1A1FCA1A1A1FCA2A2A2FCA1A1A1FC97
:105A9000A1A1A1FCA2A2A2FCA1A1A1FCA1A1A1FC87
:105AA000A2A2A2FCA1A1A1FCA1A1A1FCA2A2A2FC74
:105AB000A1A1A1FCA1A1A1FCA2A2A2FCA1A1A1FC67
:105AC000A2A2A2FDA1A1A1FEA1A1A1FEA2A2A2FE4D
:105AD000A1A1A1FEA1A1A1FEA2A2A2FFA1A1A1FF3D
:105AE000A0A0A0FFA1A1A1FFA0A0A0FFA0A0A0FF37
:105AF000A1A1A1FF9E9E9EFF838383FF6D6D6DFF1D
:105B0000A2A2A2FFA2A2A2FEA2A2A2FA9F9F9FF718
:105B10008C8C8CF1585858911616160A12121202D3
:105B2000151515075252526B989898CF9E9E9ECF8E
:105B3000A2A2A2D0A2A2A2CEA3A3A3C4A3A3A3BAAB
:105B4000A3A3A3B9A3A3A3B9A3A3A3B9A3A3A3B9CD
:105B5000A3A3A3B9A3A3A3B9A3A3A3B9A3A3A3B9BD
:105B6000A3A3A3B9A3A3A3B9A3A3A3B9A3A3A3B9AD
:105B7000A3A3A3B9A3A3A3B9A3A3A3B9A3A3A3B99D
:105B8000A3A3A3BAA3A3A3C4A3A3A3CEA3A3A3D055
:105B9000A3A3A3D0A3A3A3D1A3A3A3DAA3A3A3E006
:105BA000A3A3A3E2A3A3A3E7A3A3A3EEA3A3A3F2A8
:105BB000A3A3A3F7A2A2A2FAA2A2A2FEA2A2A2FF5C
:105BC000A3A3A3F8A3A3A3D4A3A3A3AFA3A3A3981E
:105BD000A3A3A384A2A2A276929292587E7E7E383C
:105BE0009191914BA2A2A24EA3A3A343A3A3A3402E
:105BF000A3A3A340A3A3A33FA3A3A336A3A3A32D1F
:105C0000A3A3A32CA3A3A32CA3A3A32CA3A3A32B41
:105C1000A3A3A32BA3A3A32BA3A3A32BA3A3A32B34
:105C2000A3A3A32BA3A3A32BA3A3A32BA3A3A32B24
:105C3000A3A3A32BA3A3A32CA3A3A32CA3A3A32C11
:105C4000A3A3A32DA3A3A336A3A3A33FA3A3A340CE
:105C5000A3A3A340A3A3A343A3A3A34FA3A3A35A74
:105C6000A3A3A35CA3A3A368A3A3A377A3A3A384D1
:105C7000A3A3A398A3A3A3AFA3A3A3D4A3A3A3F86D
:105C8000A3A3A3EFA3A3A3A8A3A3A369A3A3A34C24
:105C9000A3A3A339A2A2A22BA3A3A324A2A2A21DC1
:105CA000A2A2A217A3A3A315A3A3A313A3A3A30F05
:105CB000A3A3A30CA3A3A30CA3A3A30BA3A3A30A13
:105CC000A3A3A30AA3A3A30AA3A3A308A3A3A3060E
:105CD000A3A3A305A3A3A305A3A3A305A3A3A3050C
:105CE000A3A3A305A3A3A305A3A3A305A3A3A305FC
:105CF000A3A3A306A3A3A308A3A3A30AA3A3A30ADE
:105D0000A3A3A30AA3A3A30BA3A3A30CA3A3A30CC2
:105D1000A3A3A30FA3A3A313A3A3A315A3A3A31791
:105D2000A3A3A31DA3A3A324A3A3A32BA3A3A3392A
:105D3000A3A3A34CA3A3A369A3A3A3A8A3A3A3EF73
:105D4000A3A3A3FCA3A3A3E9A3A3A3D4A3A3A3C333
:105D5000A3A3A3B5A3A3A3A5A3A3A39CA3A3A38F1A
:105D6000A3A3A383A3A3A381A3A3A37EA3A3A36E9F
:105D7000A3A3A364A3A3A363A3A3A363A3A3A363F2
:105D8000A3A3A363A3A3A360A3A3A351A3A3A34912
:105D9000A3A3A348A3A3A348A3A3A348A3A3A3483F
:105DA000A3A3A348A3A3A348A3A3A348A3A3A3482F
:105DB000A3A3A349A3A3A351A3A3A360A3A3A363E2
:105DC000A3A3A363A3A3A363A3A3A363A3A3A364A2
:105DD000A3A3A36EA3A3A37EA3A3A381A3A3A3832F
:105DE000A3A3A38FA3A3A39CA3A3A3A5A3A3A3B58A
:105DF000A3A3A3C3A3A3A3D4A3A3A3E9A3A3A3FC83
:105E0000A3A3A3FFA3A3A3FFA3A3A3FEA3A3A3FDF5
:105E1000A3A3A3FCA3A3A3FAA3A3A3F8A3A3A3F5FB
:105E2000A3A3A3F2A3A3A3F1A3A3A3EFA3A3A3E913
:105E3000A3A3A3E6A3A3A3E5A3A3A3E5A3A3A3E529
:105E4000A3A3A3E5A3A3A3E3A3A3A3DAA3A3A3D537
:105E5000A3A3A3D5A3A3A3D5A3A3A3D5A3A3A3D54A
:105E6000A3A3A3D5A3A3A3D5A3A3A3D5A3A3A3D53A
:105E7000A3A3A3D5A3A3A3DAA3A3A3E3A3A3A3E507
:105E8000A3A3A3E5A3A3A3E5A3A3A3E5A3A3A3E6D9
:105E9000A3A3A3E9A3A3A3EFA3A3A3F1A3A3A3F2A3
:105EA000A3A3A3F5A3A3A3F8A3A3A3FAA3A3A3FC6B
:105EB000A3A3A3FDA3A3A3FEA3A3A3FFA3A3A3FF45
:105EC000000000FF000000FF000000FF000000FFD6
:105ED000000000FF000000FF000000FF000000FFC6
:105EE000000000FF000000FF000000FF000000FFB6
:105EF000000000FF000000FF000000FF000000FFA6
:105F0000000000FF000000FF000000FF000000FF95
:105F1000000000FF000000FF000000FF000000FF85
:105F2000000000FF000000FF000000FF000000FF75
:105F3000000000FF000000FF000000FF000000FF65
:105F4000000000FF000000FF000000FF000000FF55
:105F5000000000FF000000FF000000FF000000FF45
:105F6000000000FF000000FF000000FF000000FF35
:105F7000000000FF000000FF000000FF000000FF25
:105F8000000000FF000000FF000000FF000000FF15
:105F9000000000FF000000FF000000FF000000FF05
:105FA000000000FF000000FF000000FF000000FFF5
:105FB000000000FF000000FF000000FF000000FFE5
:105FC000000000FF000000FF000000FF000000FFD5
:105FD000000000FF011634FA01122ED2000F2BA18F
:105FE000000F2A7E000F2C64000D295E000D295E33
:105FF000000F2C64000F2A7E000F2BA001122ED25E
:10600000011634FA000000FF000000FF000000FF4E
:10601000000000FF000000FF000000FF000000FF84
:10602000000000FF000000FF000000FF000000FF74
:10603000000000FF000000FF000000FF000000FF64
:10604000000000FF000000FF000000FF000000FF54
:10605000000000FF000000FF000000FF000000FF44
:10606000000000FF000000FF000000FF000000FF34
:10607000000000FF000000FF000000FF000000FF24
:10608000000000FF000000FF000000FF000000FF14
:10609000011634F900112DB3000F2C5B00102F16E0
:1060A00001123200132545003D4C67005F6B8200F2
:1060B000727D9100707B90005D6980003C4B6600B2
:1060C000132444000111320000102E16000F2C5A28
:1060D00000102CB3011633F9000000FF000000FF90
:1060E000000000FF000000FF000000FF000000FFB4
:1060F000000000FF000000FF000000FF000000FFA4
:10610000000000FF000000FF000000FF000000FF93
:10611000000000FF000000FF000000FF000000FF83
:10612000000000FF000000FF000000FF000000FF73
:10613000000000FF000000FF000000FF000000FF63
:10614000000000FF000000FF000000FF000000FF53
:10615000011534F600112D9800102F24011335007D
:1061600015294D005D6D8700AAB3C200DCE1E70090
:10617000ECEFF300F5F7F900FBFCFC00F8F9FB008D
:10618000F0F2F600E6EAEF00D6DBE300A4AEBE00D4
:10619000596A840014284C000113340000102E2486
:1061A00000102C98011633F6000000FF000000FFDD
:1061B000000000FF000000FF000000FF000000FFE3
:1061C000000000FF000000FF000000FF000000FFD3
:1061D000000000FF000000FF000000FF000000FFC3
:1061E000000000FF000000FF000000FF000000FFB3
:1061F000000000FF000000FF000000FF000000FFA3
:10620000000000FF000000FF000000FF000000FF92
:10621000000000FF00122FB701112F2801153900CF
:106220000E274F0063769200B2BECD00C7D1DD00CD
:10623000D3DCE600DFE6ED00E8EDF300F0F3F70075
:10624000F3F6F900F2F5F800ECF0F500E3E9F00000
:10625000D8E0EA00CCD6E200BFCAD800AAB7C8008E
:106260005E718E000D264D000115370000112E289D
:1062700000122EB7022246FE000000FF000000FFC1
:10628000000000FF000000FF000000FF000000FF12
:10629000000000FF000000FF000000FF000000FF02
:1062A000000000FF000000FF000000FF000000FFF2
:1062B000000000FF000000FF000000FF000000FFE2
:1062C000000000FF000000FF000000FF000000FFD2
:1062D000000000FF011736F401112F660114360289
:1062E000011C46002B4870008B9EB700A7B9CD005B
:1062F000B5C6D800C2D2E000CEDBE700D9E3ED009E
:10630000E1EAF100E7EEF400EAF0F600E9F0F5006A
:10631000E4ECF300DDE7EF00D3DFEA00C7D6E400EA
:10632000BBCCDC00ADC0D3009FB2C8008397B100E6
:1063300028456D00011B44000113340200112D6635
:10634000011735F4000000FF000000FF000000FF0F
:10635000000000FF000000FF000000FF000000FF41
:10636000000000FF000000FF000000FF000000FF31
:10637000000000FF000000FF000000FF000000FF21
:10638000000000FF000000FF000000FF000000FF11
:10639000000000FF000000FF011533E50112313756
:1063A00001183E00022351003C5C8500839DB9002A
:1063B00094AEC800A2BBD200AFC7DB00BCD1E100E5
:1063C000C7D9E700D0E0EC00D8E5EF00DDE9F10047
:1063D000E0EBF200DFEAF200DBE7F000D4E3ED00EF
:1063E000CBDCE900C1D5E400B5CCDE00A8C1D70004
:1063F0009AB5CE008BA7C3007B96B40038598100B4
:1064000002224F0001183C0001122F36011532E51F
:10641000000000FF000000FF000000FF000000FF80
:10642000000000FF000000FF000000FF000000FF70
:10643000000000FF000000FF000000FF000000FF60
:10644000000000FF000000FF000000FF000000FF50
:10645000000000FF000000FF000000FF011633E114
:1064600001143324011C440002285900375D8900BF
:106470007193B4007FA2C2008EB0CC009BBBD4004D
:10648000A8C5DB00B3CEE100BED5E500C7DBE9005F
:10649000CDE0EC00D2E3EE00D4E4EE00D3E4EE0075
:1064A000D0E1ED00CADEEA00C2D8E700B8D2E300CE
:1064B000ADCADE00A0C1D80093B6D10086AAC8003C
:1064C000779CBE00688CB0003259850002275700C7
:1064D000011B410001133124011632E1000000FFCD
:1064E000000000FF000000FF000000FF000000FFB0
:1064F000000000FF000000FF000000FF000000FFA0
:10650000000000FF000000FF000000FF000000FF8F
:10651000000000FF000000FF000000FF000000FF7F
:10652000011836EB01143427011E4600022C5E00D0
:10653000245284005D87AE006B97BB0079A4C50030
:1065400086AFCD0093B9D4009FC2D900AACADE009D
:10655000B3D0E200BBD6E600C1DAE800C5DCEA0051
:10656000C7DDEA00C6DDEA00C3DBE900BED8E7000C
:10657000B7D4E400AECDE000A4C7DC0098BFD700DC
:106580008CB6D1007FABCB00719FC2006392B80084
:106590005581A90021508000022B5C00011D4400A0
:1065A00001143226011735EB000000FF000000FF48
:1065B000000000FF000000FF000000FF000000FFDF
:1065C000000000FF000000FF000000FF000000FFCF
:1065D000000000FF000000FF000000FF000000FFBF
:1065E000000000FF021E40FB01153441011E460061
:1065F000022D5F0010457B004779A600578BB40041
:106600006498BE0071A4C6007DAECD008AB6D200EB
:1066100094BED7009FC5DB00A7CBDF00AFD0E20060
:10662000B4D4E400B8D6E600BAD7E600B9D7E6009D
:10663000B6D5E500B1D2E300ABCEE100A3C9DD00E1
:1066400099C3DA008EBBD50083B3D00077AACA0005
:106650006AA0C4005D94BC004F87B1004175A200E0
:106660000E447900022C5D00011D440001143240EB
:10667000021F3FFA000000FF000000FF000000FFC3
:10668000000000FF000000FF000000FF000000FF0E
:10669000000000FF000000FF000000FF000000FFFE
:1066A000000000FF000000FF000000FF0116357F22
:1066B000011C4200022C5D00043D75002E689A000A
:1066C000437FAD00508CB7005C98BF0068A2C50046
:1066D00074ABCB007FB3D0008ABAD40093C1D8008A
:1066E0009BC6DC00A2CADF00A7CEE000AAD0E20071
:1066F000ABD1E200ABD0E200A8CFE100A4CCE00037
:106700009EC9DD0097C4DB008EBED70084B8D300DD
:1067100079B0CE006EA8C900629FC4005595BD0037
